:100000008031552900000C00CD37F4377210653768
:10001000E3326E3269326F00C432F232633461000F
:10002000CD37F43772106537E3326E3269326F00C4
:10003000493DF13AE932723261000C10CD37F437A4
:1000400072106138E13361326F0020308500063074
:100050008400000803193A280130F800F701F70B73
:100060002F28F80B2E284A30F700F70B35283828B0
:10007000800B2C2808002C0EF039F7000F300D05EE
:1000800077048D0000000D1445280D1008000D08A0
:10009000F7000D0E0F39F800080021000D108D102B
:1000A0000D1120008D100F3021000D05F0388D004E
:1000B00020000D1500000D14000047207808AC004A
:1000C0000D1000000D14000047207808AB000D1043
:1000D0000F3021000D058D0020002C0EF700F030B0
:1000E000F70577082B04F8007808AB00AB1B532802
:1000F000291C8D1029188D1400000D1100000D1001
:100100002A0EAB000F30AB052B08AC003B202A08B1
:100110000F39AB00AC003B2008002830A2000C30A7
:10012000A3000130A4000630A5000D108D100D11A4
:100130000F3021000D058D000D108D100D110F30A9
:100140002000A60025200130A1002108033C031C4B
:10015000B1280330AC003B200530A6002520A10AC1
:10016000A5280230AC003B200530A6002520A101C7
:100170002108033C031CCB280230210784002030D7
:1001800085000318850A0008A600A9012608AA0010
:100190004D20A10AB82880316129260BD028D32808
:1001A0004030A700D428A70101302502A70727085F
:1001B0008038A800A9012808AA004D2008002408BA
:1001C000073A0319ED280B3A0319F228063A0319E6
:1001D000FA28023A0319002905290130A500A600D2
:1001E000CD200A29A9010130AA004D200230A60025
:1001F00025200A290130A5000230A600CD200A29B9
:10020000A9011030AA004D200A290130A9002408B4
:10021000AA004D2008000B088B1323009517151416
:1002200000000000891B8B1713087F39031953291D
:100230002000A100230011082000A20023001208C2
:100240002000A3002108A400DF2022082300910041
:1002500020002308230092000B088B139517151418
:1002600000000000891B8B17130D140D7F39031933
:1002700053292000A100230011082000A200230020
:1002800012082000A3002108A400DF202208230078
:1002900091002000230823009200910A0319920A7A
:1002A00020000B2923002000080023008C018D0171
:1002B0002200920191019401930103306500200016
:1002C0008D280330230091000030920020000B2184
:1002D00021000C1222000C1620000C1C8C2901306D
:1002E000A500A600CD20043023009100003092002C
:1002F00020000B210130A5000230A600CD200C30DB
:10030000230091000030920020000B2121000C11ED
:1003100022000C15C32920008C1CAB290130A5003C
:10032000A600CD2010302300910000309200200064
:100330000B210130A5000230A600CD20183023008B
:1003400091000030920020000B2121008C1122002E
:100350008C15C32920000130A500A600CD201D303A
:10036000230091000030920020000B2121000C118D
:1003700022000C1121008C1122008C11643020000D
:0A038000A600252022006C2963006E
:020000040001F9
:04000E00C13FFF1ED1
:00000001FF
;PIC16F1827
;CRC=17EA  CREATED="29-mar.-21 17:32"
